S0120000493243204D61737465722E73726563C8
S11300000C942A000C9434000C9434000C943400A6
S11300100C9434000C9434000C9434000C9434008C
S11300200C9434000C9434000C9434000C9434007C
S11300300C9434000C9434000C9434000C9434006C
S11300400C9434000C9434000C9434000C9434005C
S11300500C94340011241FBECFE5D8E0DEBFCDBF21
S11300600E9472000C9483000C94000080B96130EB
S113007049F028F0623041F0633041F0089581B1D5
S113008081B90895089A0895099A089581B1836001
S113009081B9089584EA86BF06B607FEFDCF81B113
S11300A0887F8830E1F7089584E986BF06B604FEA8
S11300B0FDCF089583B986B7846886BF06B607FE68
S11300C0FDCF81B1887F8831E1F7089583B986B780
S11300D0846886BF06B607FEFDCF81B1887F88326B
S11300E0E1F708958FEF87BB60E081E00E9436005E
S11300F00E944A0080E10E945A0084E00E94660047
S10D01000E945400F5CFF894FFCFDD
S9030000FC
