:100000000C942A000C943C000C943C000C943C0092
:100010000C943C000C943C000C943C000C943C0070
:100020000C943C000C9450010C943C000C943C004B
:100030000C943C000C943C000C943C000C943C0050
:100040000C943C000C943C000C943C000C943C0040
:100050000C943C0011241FBECFE5D8E0DEBFCDBF1D
:1000600020E0A0E6B0E001C01D92A236B207E1F7A1
:100070000E944B000C948E010C94000041E00E9401
:100080005E00089540E00E94D30008959BB381E094
:1000900089278BBB089560E080E00E943E0060E00D
:1000A00080E00E9442000E947E010E944C010E945A
:1000B000480186E490E00E947901FFCF813011F180
:1000C00030F08230D1F1833009F452C008954130CC
:1000D00059F42AB381E090E002C0880F991F6A9515
:1000E000E2F7822B8ABB089541115CC02AB381E0FC
:1000F00090E002C0880F991F6A95E2F780958223ED
:100100008ABB0895413059F427B381E090E002C0E2
:10011000880F991F6A95E2F7822B87BB08954111DA
:1001200041C027B381E090E002C0880F991F6A9513
:10013000E2F78095822387BB0895413059F424B3B8
:1001400081E090E002C0880F991F6A95E2F7822B48
:1001500084BB0895411126C024B381E090E002C021
:10016000880F991F6A95E2F78095822384BB0895D2
:10017000413059F421B381E090E002C0880F991F0B
:100180006A95E2F7822B81BB089541110BC021B320
:1001900081E090E002C0880F991F6A95E2F7809590
:1001A000822381BB0895813011F130F08230D1F18A
:1001B000833009F452C00895413059F42BB381E0E3
:1001C00090E002C0880F991F6A95E2F7822B8BBBE3
:1001D000089541115CC02BB381E090E002C0880F0C
:1001E000991F6A95E2F7809582238BBB0895413071
:1001F00059F428B381E090E002C0880F991F6A95F6
:10020000E2F7822B88BB0895411141C028B381E0F9
:1002100090E002C0880F991F6A95E2F780958223CB
:1002200088BB0895413059F425B381E090E002C0C5
:10023000880F991F6A95E2F7822B85BB08954111BB
:1002400026C025B381E090E002C0880F991F6A950F
:10025000E2F78095822385BB0895413059F422B39B
:1002600081E090E002C0880F991F6A95E2F7822B27
:1002700082BB089541110BC022B381E090E002C01F
:10028000880F991F6A95E2F78095822382BB0895B3
:100290008FB780688FBF089589B7846089BF08953C
:1002A0001F920F920FB60F9211242F933F934F93EB
:1002B0005F936F937F938F939F93AF93BF93EF93CE
:1002C000FF93E0916000F091610009950E94860122
:1002D000FF91EF91BF91AF919F918F917F916F911E
:1002E0005F914F913F912F910F900FBE0F901F90F4
:1002F0001895909361008093600008958EB5826098
:100300008EBD8DE68DBD83E88CBD08958DE68DBDD7
:1003100083E88CBD88B7846088BF0895F894FFCFC8
:00000001FF
