:100000000C942A000C9434000C9434000C943400AA
:100010000C9434000C9434000C9434000C94340090
:100020000C9434000C9434000C9434000C94340080
:100030000C9434000C9434000C9434000C94340070
:100040000C9434000C9434000C9434000C94340060
:100050000C94340011241FBECFE5D8E0DEBFCDBF25
:100060000E9436000C94FA000C940000CF93DF93AA
:10007000CDB7DEB72A970FB6F894DEBF0FBECDBF5F
:1000800043E060E080E895E20E946B0000E07E01C2
:100090008BE0E80EF11C0E94D400182F0E94BA00D9
:1000A0008FEB810F8A3348F4E1E0F0E0EC0FFD1FA5
:1000B000E00FF11D10830F5FEECF103261F7CE011C
:1000C00001960E94BE00FE0131961192EE15FF05C9
:1000D000E1F700E0E0CF9C018AB188618AB9611143
:1000E00014C0413049F028F0423049F0433051F01B
:1000F00021C080E880BD1EC082E880BD1BC084E8AE
:1001000080BD18C086E880BD15C0613099F44130CB
:1001100049F028F0423049F0433051F00BC088E8F4
:1001200080BD08C08AE880BD05C08CE880BD02C0E3
:100130008EE880BDC901A0E0B0E0880F991FAA1F1A
:10014000BB1F880F991FAA1FBB1F9C01AD01220F67
:10015000331F441F551F220F331F441F551F60E0DC
:1001600072E18AE790E00E94D8002150310929B954
:1001700030BD08955D9BFECF8CB908950F931F93FA
:10018000CF93FC018081882359F08F01C0E00E9449
:10019000BA00CF5FF801EC0FF11D80818111F7CF1C
:1001A000CF911F910F9108955F9BFECF8CB1089561
:1001B000A1E21A2EAA1BBB1BFD010DC0AA1FBB1F6B
:1001C000EE1FFF1FA217B307E407F50720F0A21BDD
:1001D000B30BE40BF50B661F771F881F991F1A944A
:1001E00069F760957095809590959B01AC01BD0174
:0801F000CF010895F894FFCF40
:00000001FF
