:100000000C942A000C9434000C9434000C943400AA
:100010000C9434000C9434000C9434000C94340090
:100020000C9434000C9434000C9434000C94340080
:100030000C9434000C9434000C9434000C94340070
:100040000C9434000C9434000C9434000C94340060
:100050000C94340011241FBECFE5D8E0DEBFCDBF25
:100060000E9442000C94D0000C9400000E945100A9
:1000700008950E94570008950E945B0008950E9411
:10008000AA00089543E060E080E895E20E943C0009
:100090000E9436000E9439008823E1F30E943F004D
:1000A000F9CF87B38F7487BBBE9A6E9A0895779BFA
:1000B000FECF8FB108959C018AB188618AB9611120
:1000C00014C0413049F028F0423049F0433051F03B
:1000D00021C080E880BD1EC082E880BD1BC084E8CE
:1000E00080BD18C086E880BD15C0613099F44130EC
:1000F00049F028F0423049F0433051F00BC088E815
:1001000080BD08C08AE880BD05C08CE880BD02C003
:100110008EE880BDC901A0E0B0E0880F991FAA1F3A
:10012000BB1F880F991FAA1FBB1F9C01AD01220F87
:10013000331F441F551F220F331F441F551F60E0FC
:1001400072E18AE790E00E94AE002150310929B99E
:1001500030BD08955D9BFECF8CB90895A1E21A2EA3
:10016000AA1BBB1BFD010DC0AA1FBB1FEE1FFF1F5B
:10017000A217B307E407F50720F0A21BB30BE40BAB
:10018000F50B661F771F881F991F1A9469F76095F2
:100190007095809590959B01AC01BD01CF010895AC
:0401A000F894FFCF01
:00000001FF
