:100000000C9431000C943B000C943B000C943B008E
:100010000C943B000C943B000C943B000C943B0074
:100020000C943B000C943B000C943B000C943B0064
:100030000C943B000C943B000C943B000C943B0054
:100040000C943B000C943B000C943B000C943B0044
:100050000C943B0056005A005E00620066006B0084
:10006000700011241FBECFE5D8E0DEBFCDBF0E94D7
:100070003D000C9480000C94000081E00E9446003A
:1000800083E00E94750080E090E00895E82F87B338
:10009000806B87BBC49ABE988E2F90E08730910505
:1000A00018F5FC01E65DFF4F0C947A008DB1806578
:1000B0008DB908958DB181658DB908958DB1826531
:1000C0008DB908958DB183658DB908958DB1806521
:1000D0008DB9709A08958DB181658DB9709A089522
:1000E0008DB182658DB9709A0895C4988FB9779B48
:1000F000FECF0895EE0FFF1F0590F491E02D0994B7
:04010000F894FFCFA1
:00000001FF
