:100000000C942A000C9434000C9434000C943400AA
:100010000C9434000C9434000C9434000C94340090
:100020000C9434000C9434000C9434000C94340080
:100030000C9434000C9434000C9434000C94340070
:100040000C9434000C9434000C9434000C94340060
:100050000C94340011241FBECFE5D8E0DEBFCDBF25
:100060000E9450000C945B000C94000082B908952B
:1000700006C086B7846C86BF06B607FEFDCF81B189
:10008000887F8036B1F7089586B7846C86BF06B640
:1000900007FEFDCF81B1887F8038E1F783B10895F5
:1000A0008FEF87BB80E10E9436000E9438000E94DB
:0A00B000440088BBFACFF894FFCF9C
:00000001FF
