:100000000C942A000C943F000C943F000C943F0089
:100010000C943F000C943F000C943F000C943F0064
:100020000C943F000C943F000C943F000C943F0054
:100030000C943F000C943F000C943F000C943F0044
:100040000C943F000C943F000C943F000C943F0034
:100050000C943F0011241FBECFE5D8E0DEBFCDBF1A
:1000600010E0A0E6B0E0E4E2F5E002C005900D92F9
:10007000AA3AB107D9F70E9459000C9490020C9447
:10008000000041E00E940E01089541E00E948301BA
:10009000089540E00E94830108950E94F8010895A8
:1000A0000E94470208950E944B0208950E94610237
:1000B0000895CF93DF93CDB7DEB72A970FB6F894A4
:1000C000DEBF0FBECDBFFE0131968AE0DF011D927B
:1000D0008A95E9F760E080E00E94410061E080E0FD
:1000E0000E94410062E080E00E94410060E080E008
:1000F0000E94490061E080E00E94490062E080E0E7
:100100000E94490043E060E080E895E20E944D00D3
:1001100000E07E01BBE0EB0EF11C0E945600182FA0
:100120000E9450008FEB810F8A3348F4E1E0F0E049
:10013000EC0FFD1FE00FF11D10830F5FEECF1032AB
:1001400061F760E670E0CE0101960E948702892B7C
:1001500089F486E690E00E94530060E080E00E940F
:10016000450061E080E00E94490062E080E00E947A
:10017000490051C067E770E0CE0101960E948702F6
:10018000892B89F48CE790E00E94530061E080E0C5
:100190000E94450060E080E00E94490062E080E04B
:1001A0000E94490038C06EE870E0CE0101960E94BE
:1001B0008702892B89F483E990E00E94530062E072
:1001C00080E00E94450061E080E00E94490060E01C
:1001D00080E00E9449001FC062EA70E0CE010196F3
:1001E0000E948702892BB9F485EA90E00E945300AF
:1001F00060E080E00E94490061E080E00E944900E8
:1002000062E080E00E94490006C01192EE15FF05F1
:10021000E1F700E082CFFE013196F7CF813011F196
:1002200030F08230D1F1833009F452C0089541306A
:1002300059F42AB381E090E002C0880F991F6A95B3
:10024000E2F7822B8ABB089541115CC02AB381E09A
:1002500090E002C0880F991F6A95E2F7809582238B
:100260008ABB0895413059F427B381E090E002C081
:10027000880F991F6A95E2F7822B87BB0895411179
:1002800041C027B381E090E002C0880F991F6A95B2
:10029000E2F78095822387BB0895413059F424B357
:1002A00081E090E002C0880F991F6A95E2F7822BE7
:1002B00084BB0895411126C024B381E090E002C0C0
:1002C000880F991F6A95E2F78095822384BB089571
:1002D000413059F421B381E090E002C0880F991FAA
:1002E0006A95E2F7822B81BB089541110BC021B3BF
:1002F00081E090E002C0880F991F6A95E2F780952F
:10030000822381BB0895813011F130F08230D1F128
:10031000833009F452C00895413059F42BB381E081
:1003200090E002C0880F991F6A95E2F7822B8BBB81
:10033000089541115CC02BB381E090E002C0880FAA
:10034000991F6A95E2F7809582238BBB089541300F
:1003500059F428B381E090E002C0880F991F6A9594
:10036000E2F7822B88BB0895411141C028B381E098
:1003700090E002C0880F991F6A95E2F7809582236A
:1003800088BB0895413059F425B381E090E002C064
:10039000880F991F6A95E2F7822B85BB089541115A
:1003A00026C025B381E090E002C0880F991F6A95AE
:1003B000E2F78095822385BB0895413059F422B33A
:1003C00081E090E002C0880F991F6A95E2F7822BC6
:1003D00082BB089541110BC022B381E090E002C0BE
:1003E000880F991F6A95E2F78095822382BB089552
:1003F0009C018AB188618AB9611114C0413049F009
:1004000028F0423049F0433051F021C080E880BDEF
:100410001EC082E880BD1BC084E880BD18C086E88D
:1004200080BD15C0613099F4413049F028F0423068
:1004300049F0433051F00BC088E880BD08C08AE81D
:1004400080BD05C08CE880BD02C08EE880BDC901BA
:10045000A0E0B0E0880F991FAA1FBB1F880F991F4B
:10046000AA1FBB1F9C01AD01220F331F441F551F44
:10047000220F331F441F551F60E072E18AE790E0AE
:100480000E9465022150310929B930BD08955D9B54
:10049000FECF8CB908950F931F93CF93FC018081F9
:1004A000882359F08F01C0E00E944702CF5FF80116
:1004B000EC0FF11D80818111F7CFCF911F910F912A
:1004C00008955F9BFECF8CB10895A1E21A2EAA1B5E
:1004D000BB1BFD010DC0AA1FBB1FEE1FFF1FA217F4
:1004E000B307E407F50720F0A21BB30BE40BF50BF1
:1004F000661F771F881F991F1A9469F7609570957A
:10050000809590959B01AC01BD01CF010895FB0141
:10051000DC018D91019080190110D9F3990B089598
:04052000F894FFCF7D
:10052400535441525400477265656E204C45442033
:100534006973204F4E2000574149540059656C6C33
:100544006F77204C4544206973204F4E200053544C
:100554004F5000526564204C4544206973204F4E2F
:0A05640020004154004F4B2000001E
:00000001FF
