:100000000C942A000C9434000C9434000C943400AA
:100010000C9434000C9434000C9434000C94340090
:100020000C9434000C9434000C9434000C94340080
:100030000C9434000C9434000C9434000C94340070
:100040000C9434000C9434000C9434000C94340060
:100050000C94340011241FBECFE5D8E0DEBFCDBF25
:100060000E9436000C9448000C9400008FEF8ABB6D
:100070000E943E000E9444008BBBFCCF87B38F746C
:1000800087BBBE9A6E9A0895779BFECF8FB1089575
:04009000F894FFCF12
:00000001FF
