S0110000426C696E6B5F4C45442E73726563EF
S11300000C942A000C9434000C9434000C943400A6
S11300100C9434000C9434000C9434000C9434008C
S11300200C9434000C9434000C9434000C9434007C
S11300300C9434000C9434000C9434000C9434006C
S11300400C9434000C9434000C9434000C9434005C
S11300500C94340011241FBECFE5D8E0DEBFCDBF21
S11300600E9441000C9489010C94000041E00E941C
S11300705600089540E00E94CB0008950E9440017C
S1130080089560E080E00E94360060E080E00E9415
S11300903A000E9474010E947C018823E1F360E02D
S11300A080E00E943E000E948101F5CF813011F171
S11300B030F08230D1F1833009F452C008954130D8
S11300C059F42AB381E090E002C0880F991F6A9521
S11300D0E2F7822B8ABB089541115CC02AB381E008
S11300E090E002C0880F991F6A95E2F780958223F9
S11300F08ABB0895413059F427B381E090E002C0EF
S1130100880F991F6A95E2F7822B87BB08954111E6
S113011041C027B381E090E002C0880F991F6A951F
S1130120E2F78095822387BB0895413059F424B3C4
S113013081E090E002C0880F991F6A95E2F7822B54
S113014084BB0895411126C024B381E090E002C02D
S1130150880F991F6A95E2F78095822384BB0895DE
S1130160413059F421B381E090E002C0880F991F17
S11301706A95E2F7822B81BB089541110BC021B32C
S113018081E090E002C0880F991F6A95E2F780959C
S1130190822381BB0895813011F130F08230D1F196
S11301A0833009F452C00895413059F42BB381E0EF
S11301B090E002C0880F991F6A95E2F7822B8BBBEF
S11301C0089541115CC02BB381E090E002C0880F18
S11301D0991F6A95E2F7809582238BBB089541307D
S11301E059F428B381E090E002C0880F991F6A9502
S11301F0E2F7822B88BB0895411141C028B381E006
S113020090E002C0880F991F6A95E2F780958223D7
S113021088BB0895413059F425B381E090E002C0D1
S1130220880F991F6A95E2F7822B85BB08954111C7
S113023026C025B381E090E002C0880F991F6A951B
S1130240E2F78095822385BB0895413059F422B3A7
S113025081E090E002C0880F991F6A95E2F7822B33
S113026082BB089541110BC022B381E090E002C02B
S1130270880F991F6A95E2F78095822382BB0895BF
S1130280813089F028F08230C9F0833011F108956B
S11302902BB381E090E002C0880F991F6A95E2F7C2
S11302A082278BBB089528B381E090E002C0880FB9
S11302B0991F6A95E2F7822788BB089525B381E0E8
S11302C090E002C0880F991F6A95E2F7822785BBE8
S11302D0089522B381E090E002C0880F991F6A95C7
S11302E0E2F7822782BB08958EB582608EBD8DE6CB
S11302F08DBD83E88CBD089508B602FEFDCF81E074
S113030008958DE68DBD83E88CBD88B7846088BF71
S10903100895F894FFCFEC
S9030000FC
