:100000000C942A000C9434000C9434000C943400AA
:100010000C9434000C9434000C9434000C94340090
:100020000C9434000C9434000C9434000C94340080
:100030000C9434000C9434000C9434000C94340070
:100040000C9434000C9434000C9434000C94340060
:100050000C94340011241FBECFE5D8E0DEBFCDBF25
:100060000E9444000C942E010C94000041E00E9478
:10007000570008950E94CC00089540E00E94570068
:1000800008950E940001089560E080E00E9436001B
:1000900060E082E00E943D0060E082E00E9441005A
:1000A0008130D1F760E080E00E943A00F5CF8130E6
:1000B00011F130F08230D1F1833009F452C008954B
:1000C000413059F42AB381E090E002C0880F991FB3
:1000D0006A95E2F7822B8ABB089541115CC02AB36E
:1000E00081E090E002C0880F991F6A95E2F7809541
:1000F00082238ABB0895413059F427B381E090E010
:1001000002C0880F991F6A95E2F7822B87BB08957A
:10011000411141C027B381E090E002C0880F991FD0
:100120006A95E2F78095822387BB0895413059F4A0
:1001300024B381E090E002C0880F991F6A95E2F72E
:10014000822B84BB0895411126C024B381E090E046
:1001500002C0880F991F6A95E2F78095822384BBBD
:100160000895413059F421B381E090E002C0880F36
:10017000991F6A95E2F7822B81BB089541110BC04C
:1001800021B381E090E002C0880F991F6A95E2F7E1
:100190008095822381BB0895813089F028F08230D8
:1001A000C9F0833011F108952BB381E090E002C0D3
:1001B000880F991F6A95E2F782278BBB089528B3B1
:1001C00081E090E002C0880F991F6A95E2F78227CC
:1001D00088BB089525B381E090E002C0880F991F85
:1001E0006A95E2F7822785BB089522B381E090E00B
:1001F00002C0880F991F6A95E2F7822782BB089593
:10020000813079F028F08230A9F08330E1F024C009
:1002100089B390E002C0959587956A95E2F7817061
:10022000089586B390E002C0959587956A95E2F7A8
:100230008170089583B390E002C0959587956A9583
:10024000E2F78170089580B390E002C0959587959C
:100250006A95E2F78170089580E00895F894FFCFE1
:00000001FF
