:100000000C9431000C943B000C943B000C943B008E
:100010000C943B000C943B000C943B000C943B0074
:100020000C943B000C943B000C943B000C943B0064
:100030000C943B000C943B000C943B000C943B0054
:100040000C943B000C943B000C943B000C943B0044
:100050000C943B00B200B600BA00BE00C200C7005C
:10006000CC0011241FBECFE5D8E0DEBFCDBF0E947B
:100070004C000C9455010C9400000E94A2000895BD
:100080000E94D10008950E94D60008950E94250183
:1000900008950E9429010895CF93DF93CDB7DEB76D
:1000A000DA950FB6F894DEBF0FBECDBFFE013196D4
:1000B00080E091E0DF019C011D9221503040E1F78A
:1000C00043E060E080E895E20E94430084E00E9403
:1000D0003D0000E07E013BE0E30EF11C0E94490080
:1000E000182F0E9446001D3041F1E1E0F0E0EC0FD6
:1000F000FD1FE00FF11D10830F5F103279F780E2D2
:100100000E944000EBCFE1E0F0E0EC0FFD1FE10FBB
:10011000F11D80810E94400080E00E9446001F5F28
:10012000011788F78DE00E944600FE01319611927A
:10013000EE15FF05E1F700E0D1CF8DE00E94400011
:1001400010E0E1CFE82F87B3806B87BBC49ABE98DD
:100150008E2F90E08730910518F5FC01E65DFF4F8A
:100160000C944F018DB180658DB908958DB1816575
:100170008DB908958DB182658DB908958DB183656E
:100180008DB908958DB180658DB9709A08958DB13E
:1001900081658DB9709A08958DB182658DB9709A17
:1001A0000895C4988FB9779BFECF08959C018AB1BA
:1001B00088618AB9611114C0413049F028F0423099
:1001C00049F0433051F021C080E880BD1EC082E874
:1001D00080BD1BC084E880BD18C086E880BD15C006
:1001E000613099F4413049F028F0423049F0433011
:1001F00051F00BC088E880BD08C08AE880BD05C00A
:100200008CE880BD02C08EE880BDC901A0E0B0E0EE
:10021000880F991FAA1FBB1F880F991FAA1FBB1FFA
:100220009C01AD01220F331F441F551F220F331FA6
:10023000441F551F60E072E18AE790E00E942D01A3
:100240002150310929B930BD08955D9BFECF8CB98D
:1002500008955F9BFECF8CB10895A1E21A2EAA1BD0
:10026000BB1BFD010DC0AA1FBB1FEE1FFF1FA21766
:10027000B307E407F50720F0A21BB30BE40BF50B63
:10028000661F771F881F991F1A9469F760957095EC
:10029000809590959B01AC01BD01CF010895EE0FB3
:0E02A000FF1F0590F491E02D0994F894FFCF14
:00000001FF
