S01800004775657373696E675F47616D655F56322E7372656307
S11300000C942A000C943F000C943F000C943F0085
S11300100C943F000C943F000C943F000C943F0060
S11300200C943F000C943F000C943F000C943F0050
S11300300C943F000C943F000C943F000C943F0040
S11300400C943F000C943F000C943F000C943F0030
S11300500C943F0011241FBECFE5D8E0DEBFCDBF16
S113006010E0A0E6B0E0E0E5F6E002C005900D92F5
S1130070AE38B107D9F70E9464010C9426030C949E
S113008000008FE081BB81E082BBE9EFF0E03197B3
S1130090F1F700C000008130A1F490B392959F70F5
S11300A0923059F020F4913009F453C04DC094308B
S11300B009F451C0983019F047C082E308958BE2E7
S11300C008958230A9F490B392959F70923051F0C4
S11300D020F4913009F441C037C0943029F09830AD
S11300E029F032C085E3089586E308958DE20895EA
S11300F08430A1F490B392959F70923049F018F433
S1130100913069F121C0943029F0983029F01CC055
S113011088E3089589E308958AE208958830A1F474
S113012090B392959F70923049F018F49130C9F0D1
S11301300BC0943029F0983029F006C080E308956C
S11301408DE308958FE20895880F893008F49CCFD9
S11301509ACF81E3089583E3089584E3089587E3C0
S1130160089583E2089580B382958F70E1F708952E
S1130170CF93C82F65B36F70807F682B82E00E9495
S11301800902A898AA9A89EF90E00197F1F700C0B4
S11301900000AA9865B36F7020E1C29FC0011124CA
S11301A0682B82E00E940902A898AA9A89EF90E03D
S11301B00197F1F700C00000AA98CF91089561E07B
S11301C082E00E94DD0160E082E00E94090283E394
S11301D00E94B80082E30E94B80088E20E94B8003E
S11301E08EE00E94B80081E00E94B80083EF91E0A5
S11301F00197F1F700C0000086E00E94B80008955E
S1130200CF93C82F65B36F70807F682B82E00E9404
S11302100902A89AAA9A89EF90E00197F1F700C021
S11302200000AA9865B36F7020E1C29FC001112439
S1130230682B82E00E940902A89AAA9A89EF90E0AA
S11302400197F1F700C00000AA98CF910895CF93C9
S1130250DF93EC018881882331F021960E9400010C
S113026089918111FBCFDF91CF91089581E00E94A4
S1130270B800089580EC0E94B80008950E943601E9
S113028084E690E00E9427010E943A0108950E94AA
S11302909D029C012150310981E02F30310508F481
S11302A080E00895CF93C62F0E949D026C2F70E0CA
S11302B021E06817790709F020E0822FCF91089593
S11302C0FC01108211820895CF93DF9300D01F9216
S11302D0CDB7DEB70E94DF000E948D026FE070E0B0
S11302E00E941902FF24F394F80E0E943E0100E0DC
S11302F00E944100182F0E94B3001D3361F0812F2A
S11303000E940001E1E0F0E0EC0FFD1FE00FF11DA1
S113031010830F5FEDCFCE0101960E94470181301B
S1130320B9F40E94360183E790E00E9427012FEB85
S113033087E299E0215080409040E1F700C000003E
S1130340CE0101960E9460010E943E0100E0D0CFE0
S11303506F2DCE0101960E9452018130B9F40E94A2
S113036036018CE790E00E9427012FEB87E299E0A9
S1130370215080409040E1F700C00000CE0101967A
S11303800E9460010E943E0100E0B2CF0E9436014B
S113039084E890E00E9427012FEB87E299E0215046
S11303A080409040E1F700C00000CE0101960E9419
S11303B060010E943E0100E09BCF813079F028F07B
S11303C08230A9F08330E1F00895613019F48FEFA1
S11303D08ABB089561111CC01ABA0895613019F4DA
S11303E08FEF87BB0895611113C017BA0895613068
S11303F019F48FEF84BB089561110AC014BA0895EB
S1130400613019F48FEF81BB0895611101C011BAF5
S11304100895813041F028F0823039F0833039F08A
S113042008956BBB089568BB089565BB089562BBCE
S1130430089597FB072E16F4009407D077FD09D092
S11304400E942D0207FC05D03EF4909581959F4FA4
S11304500895709561957F4F0895AA1BBB1B51E1C8
S113046007C0AA1FBB1FA617B70710F0A61BB70B20
S1130470881F991F5A95A9F780959095BC01CD01C5
S113048008958F929F92AF92BF92CF92DF92EF9294
S1130490FF92CF93DF93EC01688179818A819B81FC
S11304A0611571058105910521F464E279ED8BE50F
S11304B097E02DE133EF41E050E00E94C30249018F
S11304C05A019B01AC01A7EAB1E40E94E2026B016C
S11304D07C01ACEEB4EFA50194010E94F002DC01B2
S11304E0CB018C0D9D1DAE1DBF1DB7FF03C0019731
S11304F0A109B04888839983AA83BB839F77DF913E
S1130500CF91FF90EF90DF90CF90BF90AF909F90EE
S11305108F9008950E944102089580E690E00E9421
S113052041020895A0E0B0E08093600090936100E0
S1130530A0936200B09363000895FC018827992773
S1130540E89421912032E9F3293010F02E30C8F3D9
S11305502B3241F02D3239F4689404C00E94BB025E
S1130560820F911D219120532A30C0F31EF49095DF
S113057081959F4F08957AE0979F902D879F802DB6
S1130580910D11240895052E97FB1EF400940E94EA
S1130590DA0257FD07D00E94F50207FC03D04EF49F
S11305A00C94DA0250954095309521953F4F4F4F6A
S11305B05F4F089590958095709561957F4F8F4F0B
S11305C09F4F08950E941703A59F900DB49F900D0F
S11305D0A49F800D911D11240895B7FF0C94E2028D
S11305E00E94E202821B930B0895A1E21A2EAA1B19
S11305F0BB1BFD010DC0AA1FBB1FEE1FFF1FA217CF
S1130600B307E407F50720F0A21BB30BE40BF50BCB
S1130610661F771F881F991F1A9469F76095709554
S1130620809590959B01AC01BD01CF010895A29FD7
S1130630B001B39FC001A39F700D811D1124911DB2
S1130640B29F700D811D1124911D0895F894FFCF60
S1130650010000004775657373204E756D62657205
S11306603A20004572726F72202E2E00596F752049
S111067057696E00596F75204C6F736500005A
S9030000FC
