S01800004775657373696E675F47616D655F56312E7372656308
S11300000C942A000C943F000C943F000C943F0085
S11300100C943F000C943F000C943F000C943F0060
S11300200C943F000C943F000C943F000C943F0050
S11300300C943F000C943F000C943F000C943F0040
S11300400C943F000C943F000C943F000C943F0030
S11300500C943F0011241FBECFE5D8E0DEBFCDBF16
S113006010E0A0E6B0E0E0EEF6E002C005900D92EC
S1130070A639B107D9F70E94D7000C946E030C94EB
S11300800000CF93C82F65B36F70807F682B82E028
S11300900E940302A898AA9A89EF90E00197F1F7C9
S11300A000C00000AA9865B36F7020E1C29FC00130
S11300B01124682B82E00E940302A898AA9A89EF6F
S11300C090E00197F1F700C00000AA98CF9108953D
S11300D061E082E00E94D70160E082E00E940302B6
S11300E083E30E94410082E30E94410088E20E946F
S11300F041008EE00E94410081E00E94410083EFB4
S113010091E00197F1F700C0000086E00E944100F1
S11301100895CF93C82F65B36F70807F682B82E0FA
S11301200E940302A89AAA9A89EF90E00197F1F736
S113013000C00000AA9865B36F7020E1C29FC0019F
S11301401124682B82E00E940302A89AAA9A89EFDC
S113015090E00197F1F700C00000AA98CF910895AC
S1130160CF93DF93EC018881882331F021960E949C
S1130170890089918111FBCFDF91CF91089581E0AE
S11301800E944100089580EC0E944100089540E0DF
S11301900E94620108950E94130208950E94BF0004
S11301A084E690E00E94B0000E94C3000895CF93BB
S11301B0DF9300D01F92CDB7DEB70E94680060E0E5
S11301C080E00E94C7000E94C6026FE070E00E94B7
S11301D0520201E0080F0E94CE000E94410210E08A
S11301E060E080E00E94CB008130B9F41F5F4AE0F8
S11301F0BE016F5F7F4F812F90E00E94D602CE0137
S113020001960E94B0000E94C30060E080E00E945A
S1130210CB008130D1F30E944C020E94470281300E
S1130220F9F60E94BF0083E790E00E94B0002FE738
S11302308AE196E0215080409040E1F700C0000040
S11302408FEF810F8F30A0F00E94BF008CE790E009
S11302500E94B0002FEB87E299E02150804090404B
S1130260E1F700C000000E94CE000E944C02B7CF0C
S1130270101314C00E94BF0085E890E00E94B000F3
S11302802FEB87E299E0215080409040E1F700C0D5
S113029000000E94CE000E944C02A1CF0E94BF0029
S11302A08DE890E00E94B0002FEB87E299E02150A6
S11302B080409040E1F700C000000E94CE000E9400
S11302C04C028DCF813011F130F08230D1F1833086
S11302D009F452C00895413059F42AB381E090E002
S11302E002C0880F991F6A95E2F7822B8ABB089592
S11302F041115CC02AB381E090E002C0880F991FCD
S11303006A95E2F7809582238ABB0895413059F4B7
S113031027B381E090E002C0880F991F6A95E2F745
S1130320822B87BB0895411141C027B381E090E03F
S113033002C0880F991F6A95E2F78095822387BBD4
S11303400895413059F424B381E090E002C0880F4D
S1130350991F6A95E2F7822B84BB0895411126C048
S113036024B381E090E002C0880F991F6A95E2F7F8
S11303708095822384BB0895413059F421B381E0F0
S113038090E002C0880F991F6A95E2F7822B81BB27
S1130390089541110BC021B381E090E002C0880FA1
S11303A0991F6A95E2F78095822381BB0895813075
S11303B079F028F08230A9F08330E1F008956130BB
S11303C019F48FEF8ABB089561111CC01ABA0895FD
S11303D0613019F48FEF87BB0895611113C017BA08
S11303E00895613019F48FEF84BB089561110AC038
S11303F014BA0895613019F48FEF81BB0895611127
S113040001C011BA0895813041F028F0823039F0EA
S1130410833039F008956BBB089568BB089565BBBC
S1130420089562BB0895813079F028F08230A9F0F4
S11304308330E1F024C089B390E002C0959587959C
S11304406A95E2F78170089586B390E002C09595AD
S113045087956A95E2F78170089583B390E002C0AE
S1130460959587956A95E2F78170089580B390E039
S113047002C0959587956A95E2F78170089580E0AA
S113048008958EB583608EBD1DBC1CBC089588B7CD
S113049082FB882780F908951DBC1CBC88B7846042
S11304A088BF089597FB072E16F4009407D077FDB4
S11304B009D00E94660207FC05D03EF49095819510
S11304C09F4F0895709561957F4F0895AA1BBB1B9C
S11304D051E107C0AA1FBB1FA617B70710F0A61B40
S11304E0B70B881F991F5A95A9F780959095BC0161
S11304F0CD0108958F929F92AF92BF92CF92DF92D7
S1130500EF92FF92CF93DF93EC01688179818A8126
S11305109B81611571058105910521F464E279EDF2
S11305208BE597E02DE133EF41E050E00E940B03AF
S113053049015A019B01AC01A7EAB1E40E942A03D4
S11305406B017C01ACEEB4EFA50194010E94380369
S1130550DC01CB018C0D9D1DAE1DBF1DB7FF03C07B
S11305600197A109B04888839983AA83BB839F77A5
S1130570DF91CF91FF90EF90DF90CF90BF90AF903D
S11305809F908F9008950E947A02089580E690E0EB
S11305900E947A020895A0E0B0E0809360009093F6
S11305A06100A0936200B09363000895BB274A30B2
S11305B031F4992322F4BDE2909581959F4F0C94D8
S11305C0E202BB27FB015527AA27880F991FAA1F00
S11305D0A41710F0A41B83955051B9F7A05DAA335A
S11305E008F0A95DA193009779F7B111B193119225
S11305F0CB010C94FB02DC01FC01672F7191772382
S1130600E1F7329704C07C916D9370836291AE17C9
S1130610BF07C8F30895052E97FB1EF400940E94AB
S1130620220357FD07D00E943D0307FC03D04EF47C
S11306300C94220350954095309521953F4F4F4F90
S11306405F4F089590958095709561957F4F8F4F7A
S11306509F4F08950E945F03A59F900DB49F900D36
S1130660A49F800D911D11240895B7FF0C942A03B3
S11306700E942A03821B930B0895A1E21A2EAA1B3F
S1130680BB1BFD010DC0AA1FBB1FEE1FFF1FA2173E
S1130690B307E407F50720F0A21BB30BE40BF50B3B
S11306A0661F771F881F991F1A9469F760957095C4
S11306B0809590959B01AC01BD01CF010895A29F47
S11306C0B001B39FC001A39F700D811D1124911D22
S11306D0B29F700D811D1124911D0895F894FFCFD0
S11306E0010000004775657373204E756D62657275
S11306F03A200054696D65204F5554004572726F5D
S113070072202E2E00596F752057696E00596F752F
S1090710204C6F7365002C
S9030000FC
